:020000040800F2
:10000000780600205502000855120008510D00081E
:1000100051120008010400083D1300080000000010
:100020000000000000000000000000005D12000859
:1000300005040008000000005912000861120008C1
:100040006F0200086F0200086F0200086F020008CC
:100050006F0200086F0200086F0200086F020008BC
:100060006F0200086F0200086F0200086F020008AC
:100070006F0200086F0200086F0200086F0200089C
:100080006F0200086F0200086F0200086F0200088C
:100090006F0200086F0200086F0200086F0200087C
:1000A0006F0200086F0200086F0200086F0200086C
:1000B0006F0200086F0200086F0200086F0200085C
:1000C0006F0200086F0200086F0200086F0200084C
:1000D0006F0200086F0200086F0200086F0200083C
:1000E0006F0200086F0200086F0200086F0200082C
:1000F0006F0200086F0200086F0200086F0200081C
:100100006F0200086F0200086F0200086F0200080B
:100110006F0200086F0200086F0200086F020008FB
:100120006F0200086F0200086F0200086F020008EB
:100130006F0200086F0200086F0200086F020008DB
:100140006F0200086F0200086F0200086F020008CB
:100150006F0200086F0200086F0200086F020008BB
:100160006F0200086F0200086F0200086F020008AB
:100170006F0200086F0200086F0200080000000014
:100180006F0200086F0200086F0200086F0200088B
:100190006F0200086F0200086F0200086F0200087B
:1001A0006F0200086F0200086F0200086F0200086B
:1001B0006F02000800F002F800F03CF80AA090E896
:1001C000000C82448344AAF10107DA4501D100F012
:1001D00031F8AFF2090EBAE80F0013F0010F18BFA3
:1001E000FB1A43F001031847BC110000DC110000AA
:1001F000103A24BF78C878C1FAD8520724BF30C853
:1002000030C144BF04680C60704700000023002424
:1002100000250026103A28BF78C1FBD8520728BF16
:1002200030C148BF0B6070471FB501F0A6F81FBD75
:1002300010B510BD00F0A9F81146FFF7F5FF01F069
:100240007FF800F0C7F803B4FFF7F2FF03BC00F03B
:10025000CFF800000948804709480047FEE7FEE75D
:10026000FEE7FEE7FEE7FEE7FEE7FEE7FEE7FEE766
:1002700004480549054A064B704700002913000849
:10028000B5010008780000207806002078020020E0
:100290007802002053EA020C00F069802DE9F04B4F
:1002A0004FF00006002B1FBFB3FA83F503FA05F4E5
:1002B00024FA05F65E4012BF1643B2FA82F502FA3E
:1002C00005F4C5F120051EBF22FA05FC44EA0C0422
:1002D000203556EA044C4FEA144418BF641C4FF012
:1002E00000084FF00009904271EB030C39D300294C
:1002F00019BFB1FA81F701FA07F6B0FA80F700FAF0
:1003000007F6C7F120071EBF20FA07FC46EA0C06D5
:100310002037B6FBF4FCA7EB0507103F07F01F0BD7
:10032000CBF120062CFA06F60CFA0BFB44BFB346C1
:100330000026202FA4BF5E464FF0000B5BEA060CA0
:1003400008BF4FF0010B19EB0B0948EB0608ABFB9C
:10035000027C06FB02CC0BFB03CCC01B71EB0C0137
:10036000C1E70B46024641464846BDE8F08B13B54F
:10037000084318BF4FF0FF300146AFF30080BDE8DF
:100380001C407047704770477047754600F02CF866
:10039000AE4605006946534620F00700854618B072
:1003A00020B5FFF765FFBDE820404FF000064FF095
:1003B00000074FF000084FF0000BAC46ACE8C00956
:1003C000ACE8C009ACE8C009ACE8C00921F00701FD
:1003D0008D46704710B50446AFF300802046BDE857
:1003E0001040FFF730BF00000048704710000020A9
:1003F00001491820ABBEFEE726000200704700004E
:10040000FEE7000070470000B0B5044600F0F4F8C5
:10041000054640F20000C2F200000078611C18BFDF
:10042000044400BF00F0E8F8401BA042FAD3B0BD7E
:100430002DE9F04F82B000F13E4242F2004502F158
:10044000FF77C4F202050A224FEAB726A84208BF86
:100450000922092E38BF4FEAB7224FF0010A0024C3
:1004600000274FF00008009208E000BF023708F1B3
:100470000108202F04F1040400F0B4800E680AFA89
:1004800008F916EA090FF1D0D1F804A00AF0030B1D
:10049000ABF10106012E17D80322866802FA07FE87
:1004A000CA6826EA0E06BA40324382604268CAF33E
:1004B000001522EA090205FA08F54FEA480C6FEA2E
:1004C0000E062A4342600BE00322BA40D643BBF13A
:1004D000030FBC4604D1BC464FF0030B22E000BF23
:1004E000C2688D68324005FA0CF52A43BBF1020F51
:1004F000C26017D16FF0030202EA5802024404F00E
:100500001C030F25D2F820E005FA03FA0D692EEA44
:100510000A0E05FA03F343EA0E031362D1F804A0AE
:100520000AF0030B02680BFA0CF332401A431AF478
:10053000403F4FF0010A026098D0002243F6440386
:100540000192C4F202031A6843F6004E42F480425C
:100550001A601A68C4F2010E02F480420192019AF4
:1005600028F003024FF6084C7244CFF6FF7C52F895
:100570000C3004F00C060F25B540AB43009D05FA86
:1005800006F6334342F80C30DEF808204B6842EAA6
:10059000090643F60C4CDD0258BF22EA0906CEF8E4
:1005A0000860C4F2010CDCF800209D0242EA090652
:1005B00058BF22EA0906CCF80060DEF804209D034B
:1005C00042EA090658BF22EA0906CEF80460DEF8BE
:1005D0000020DB0342EA090658BF22EA0906CEF8EA
:1005E000006043E702B0BDE8F08F0000002A08BFBA
:1005F000090481617047000040F27000C2F20000FF
:100600000068704740F2000040F27001C2F2000042
:10061000C2F2000100780A681044086070470000C8
:1006200080B543F60040C4F20200016841F4007155
:100630000160016841F480610160016841F48071EA
:100640000160032000F074F8002000F005F800F0CD
:1006500027F8002080BD000070B540F20006C2F20D
:10066000000640F208013278C2F200014FF47A73BA
:100670000968B3FBF2F20446B1FBF2F1084600F060
:1006800051FB0F2C4FF0010508D838B94FF0FF305F
:1006900021460022002500F01FF87460284670BD36
:1006A00082B0002043F640010190C4F202014A6882
:1006B00042F480424A604A6802F480420192019A00
:1006C0000090086840F080500860086800F0805092
:1006D0000090009802B0704710B54EF60C5CCEF258
:1006E000000CDCF80030C3F3022E8EF00704042C5B
:1006F00028BF0424BEF103034FF0FF3E0EFA04F4BA
:1007000038BF0023A14399400EFA03F39A431143E3
:1007100000F00F02043A624409010C3200F1604318
:10072000B0F1FF3FC8BF03F56442117010BD000077
:100730004EF60C51CEF200010A684FF6FF031A4044
:1007400060F30A2242F0806040F0FD70086070475C
:1007500070B582B00020019043F64000C4F2020060
:100760000168402641F0805101600068C4F20E2605
:1007700000F080500190019847F204050120C4F276
:1007800000053060FFF738FF044600BF2868C0034B
:1007900006D4FFF731FF001BB0F57A7FF6D90EE0E3
:1007A00001207060FFF728FF044600BF286880031F
:1007B00008D4FFF721FF001BB0F57A7FF6D903209C
:1007C00002B070BD002002B070BD00002DE9F04104
:1007D000002800F08B8043F60808C4F202080446A3
:1007E000D8F8F8030D4600F00F00884207D288F8C9
:1007F000F853D8F8F80300F00F00A84276D120682B
:10080000810717D5410705D5D8F8001041F4E0510C
:10081000C8F80010010705D5D8F8001041F4604170
:10082000C8F80010D8F80010A26821F0F0011143B8
:10083000C8F80010C0073FD1D8F8F80300F00F0047
:10084000A84207D988F8F853D8F8F80300F00F0049
:10085000A8424BD12068410707D5D8F80010E268BC
:1008600021F4E0511143C8F80010000708D5D8F86A
:100870000000216920F4604040EAC100C8F800008F
:1008800000F054F8D8F8001041F29432C1F303118B
:10089000C0F60002515C40F2080220FA01F140F279
:1008A0000400C2F200000068C2F200021160FFF70B
:1008B000D3FE0020BDE8F0816068811E022907D2C6
:1008C00058F8081C89015CBF0120BDE8F08111E0E7
:1008D000012807D158F8081C89035CBF0120BDE836
:1008E000F08107E058F8081C890703D40120BDE80F
:1008F000F08100BFD8F8001021F003010843C8F8C8
:100900000000FFF779FE064641F28837D8F800006C
:10091000616800F00C00B0EB810F8DD0FFF76CFE2A
:10092000801BB842F2D90320BDE8F08110B543F630
:100930000404C4F20204606800F00C0008280BD024
:10094000042819BF42F20040C0F2F40047F640000C
:10095000C0F27D1010BD00BF2068216823684902E5
:1009600047F64001C0F27D1100F03F02C3F388104A
:100970005CBF42F20041C0F2F401A1FB0001002380
:10098000FFF788FC21680222C1F3014102EB41011B
:10099000B0FBF1F010BD00002DE9F04182B000285D
:1009A00070D00446007843F60006C007C4F2020681
:1009B0000BD0B06800F00C00042840F0A78030682D
:1009C000800302D5606800285CD0207880071AD5A3
:1009D000B06810F00C0F09D0B06800F00C000828C7
:1009E00040F0AE807068400200F1AA803068800755
:1009F00002D5E068012845D13068216920F0F8006F
:100A000040EAC1003060207800073FD420784007DA
:100A100054D4A5698DB3B06800F00C00082840F0EC
:100A2000C380012D2ED07068E16900F480028A42F3
:100A300028D1216A00F03F028A4223D147F6C071D3
:100A4000626A0140B1EB821F1CD1A26A0023CFF67B
:100A5000FF7303EBC23200F440316FF30F02914297
:100A600010D1E16A00F07062B2EB016F0AD1216B24
:100A700000F0E040B0EB017F04D1002002B0BDE8FF
:100A8000F08100BF012002B0BDE8F081606900285C
:100A900040F20000C4F2472076D00121C0F8801E49
:100AA000FFF7AAFD054600BF706F8007AED4FFF7C1
:100AB000A3FD401B0228F7D9DDE000BF306C10F029
:100AC00080580AD100200190306C40F08050306492
:100AD000306C00F080500190019847F20007C4F29A
:100AE00000073868C00541D4386840F48070386029
:100AF000FFF782FD054600BF3868C00536D4FFF712
:100B00007BFD401B0228F7D9B5E000BFB06800F0BC
:100B10000C00082803D1706840023FF550AF6068B0
:100B2000B0F5803F07D0B0F5A02F40F08D80306841
:100B300040F480203060306840F4803030608DE0D8
:100B4000E068002852D00020C4F247200121016053
:100B5000FFF752FD054600BF306880073FF54CAFF8
:100B6000FFF74AFD401B0228F6D984E0A06801285F
:100B700005D005284ED1306F40F004003067306F4B
:100B800040F0010030674FE00021C0F8801EFFF701
:100B900033FD0546706F80077FF538AFFFF72CFDFA
:100BA000401B0228F6D966E00027C4F24727002040
:100BB0003866FFF721FD022D05460BD13068800114
:100BC0005ED5FFF719FD401B02284FF00300F5D951
:100BD00054E700BF306880017FF54FAFFFF70CFD91
:100BE000401B02284FF00300F4D947E70020C4F26D
:100BF000472000210160FFF7FFFC054630688007B1
:100C00007FF501AFFFF7F8FC401B02284FF003000F
:100C1000F4D933E7316F002821F001013167316FDA
:100C200021F00401316751D0FFF7E6FC054641F29F
:100C3000883700BF306F80075AD4FFF7DDFC401BB8
:100C4000B842F7D917E000BF3168002821F480319D
:100C50003160316821F48021316053D0FFF7CCFC42
:100C6000054600BF306880033FF5AFAEFFF7C4FC18
:100C7000401B6428F6D9032002B0BDE8F08100BF14
:100C800004F11C052FCD246B08430021CFF6FF7122
:100C900040EA821001EBC3316FF30F0140EA0560B7
:100CA000084340EA0470706001203866FFF7A4FC36
:100CB000044600BF306880013FF5DFAEFFF79CFCC3
:100CC000001B02284FF00300F4D9D7E6FFF794FC8D
:100CD000054641F2883700BF306F800708D5FFF71F
:100CE0008BFC401BB8424FF00300F5D9C6E600BFAD
:100CF000B8F1000F7FF48DAE306C20F0805030647E
:100D000087E600BFFFF778FC054600BF3068800328
:100D10007FF55BAEFFF770FC401B64284FF00300CB
:100D2000F4D9ABE6411E0020B0EB116F1CBF0120CF
:100D300070474EF21002CEF2000251604EF623517F
:100D4000CEF20001F0230B70072190601160704714
:100D5000FEE700002DE9F04F8DB04FF0000A43F69A
:100D60003000CDF830A0CDE90AAACDE908AACDF827
:100D70001CA0C4F202000168012241F010010160D0
:100D8000016801F0100107910799CDF81CA00168D6
:100D900041F040010160016801F0400107910799AD
:100DA000CDF81CA0016841F002010160016801F06A
:100DB000020107910799CDF81CA0016841F00801D4
:100DC0000160016801F0080107910799CDF81CA0A6
:100DD000016841F004010160016801F0040107911C
:100DE0000799CDF81CA0016841F00101016001687C
:100DF00001F0010107910799CDF81CA0016841F4A9
:100E000000710160016801F4007107910799CDF844
:100E10001CA0016841F480710160016801F48071D7
:100E200007910799CDF81CA0016841F48061016029
:100E3000016801F4806107910799CDF81CA0016851
:100E400041F020010160016801F02001079107993C
:100E5000CDF81CA0016841F080010160006800210C
:100E600000F0800007900798C4F2020101F52050BD
:100E70008846F8210290FFF7B9FB4FF6FB70089007
:100E8000022009900C2008F5805608AC03250C9030
:100E9000304621460227CDF828A00B95FFF7C8FA67
:100EA000042008A981E881040B200C9030462146DB
:100EB0000B954FF00B09FFF7BBFA4FF4D040CDE98B
:100EC000080708F5C05021464FF0020BCDE90AA5EE
:100ED000CDF83090C1460690FFF7AAFA4FF4407063
:100EE00008901220CDE9090A042008F580660C90CC
:100EF000304621460B95FFF79BFA43F62340CDE998
:100F0000080B0A200C9030462146CDE90AA504962C
:100F1000FFF78EFA4FF6F370CDE9080B0C2708F5B2
:100F200040602146CDE90AA50C970190FFF780FAB1
:100F30004FF4F850CDE9080B08F500602146CDE9E3
:100F40000AA50C970390FFF773FA8020CDE9080BF0
:100F50000D200C9030462146CDE90AAAFFF768FA29
:100F60004020CDE9080B0A2730462146CDE90AA5E5
:100F70000C97FFF75DFA069E48F23F30CDE9080B6B
:100F80004FF00C0B304621464FF00208CDE90AA580
:100F9000CDF830B0FFF74CFA4FF23B0008A981E8DA
:100FA000210409F5105021460590FFF741FA4FF44E
:100FB000C050CDE90808484621464FF00208CDE967
:100FC0000AA50C97FFF734FA4FF4807008904FF49D
:100FD000881009F50057CDE9090A384621460097DF
:100FE000FFF726FA40F2FF6008A981E801053846BC
:100FF0002146CDE90B5BFFF71BFA8020029F08908A
:101000000120CDE9090A38462146CDF82CA0FFF78A
:101010000FFA782008901120CDE9090A38462146B8
:10102000CDF82CA0FFF704FA4FF4A25008A981E8EC
:10103000210430462146FFF7FBF9DDF80480082043
:1010400008A981E8210440462146FFF7F1F94FF64F
:101050003F00089002260C2709F5A0502146CDE953
:10106000096A0B950C970290FFF7E2F90420CDE98D
:101070000806404621464FF0020BCDE90AA50C9721
:101080000C27FFF7D5F94FF62C70CDE9080B09F5C1
:10109000E0502146CDE90AA50C974F4681460190C4
:1010A000FFF7C6F94FF4C060CDE9080B07200C909C
:1010B00038462146CDE90AA5FFF7BAF9009E4FF45C
:1010C000704008A981E8210430462146FFF7B0F9B5
:1010D0004FF40060CDE9080B4FF00A083046214676
:1010E000CDE90AA5CDF83080FFF7A2F94FF4807062
:1010F000CDE9080B01200C9038462146CDE90AAA1B
:10110000FFF796F9039FC020CDE9080B384621462A
:10111000CDE90AAA0C95FFF78BF91020CDE9080B51
:1011200048462146CDE90AA5CDF830804FF00A089F
:10113000FFF77EF98020CDE9080B06200C90069879
:101140002146CDE90AAAFFF773F94FF49860029E91
:10115000CDE9080B09200C9030462146CDE90AA5BF
:10116000FFF766F94FF44070CDE9080B3046214691
:10117000CDE90AA5CDF83080FFF75AF93E20CDE938
:10118000080B0B2638462146CDE90AA50C96FFF739
:101190004FF90120CDE9080B38462146CDE90AA5D3
:1011A000CDF830804FF00A0BFFF742F9DDF81080E0
:1011B000042008A981E8210440462146FFF738F9B8
:1011C00040F200098620C4F202090890022748462E
:1011D0002146CDE9097ACDE90B560B26FFF728F910
:1011E000502008A981E8210448462146FFF720F94C
:1011F000C02008A981E8810401982146CDE90B5659
:10120000FFF716F9282008A981E8810448462146FD
:10121000CDE90B5BFFF70CF90420CDE908070D20A1
:101220000C90059821460226CDE90AAAFFF700F99D
:101230004FF4404008A981E841040C200C9040463E
:1012400021460B95FFF7F4F80DB0BDE8F08F0000D4
:10125000FEE70000FEE70000704700007047000056
:10126000FFF7D0B980B594B0002043F640010C9050
:10127000CDE90A00CDE908000690CDE90400CDE9EA
:1012800002000190C4F202010A6842F080520A6032
:10129000096801F080510191019947F20001019024
:1012A000C4F200010A6842F440420A60096801225F
:1012B00001F44041019101990221CDE90D1008206E
:1012C0000F90B420CDE9100104200A921022CDE93C
:1012D000120107A807910B92FFF75EFB20B1EFF315
:1012E000108072B6FEE700BFFFF732FA20B1EFF3CD
:1012F000108072B6FEE700BF0F200290022003901C
:10130000002004904FF4A05005904FF480500690B8
:1013100002A80521FFF75AFA20B1EFF3108072B648
:10132000FEE700BF14B080BD4EF68850CEF200003C
:10133000016841F47001016070470000FEE70000A1
:1013400042F60004C4F20204FFF76AF9FFF78AFFCD
:10135000FFF700FD204678210022FFF747F94FF400
:101360007A70FFF751F8204678210122FFF73EF905
:101370004FF47A70FFF748F8ECE7F1EE100A4FF6F9
:10138000FF71C0F2C03120EA010040F04070E1EE90
:10139000100A704700000000000000000102030472
:1013A00006070809C813000800000020100000000C
:1013B000F0010008D81300081000002068060000A3
:1013C0000C020008000000000100000010000000F6
:0813D0000024F40000000000FD
:04000005080001B539
:00000001FF
